:020000040800F2
:10000000F8360020450100088720000889190008FB
:10001000651F0008410C00084B2F0008000000007D
:100020000000000000000000000000002929000876
:10003000F11300080000000025210008352A0008FF
:100040005F0100085F0100085F0100085F01000810
:100050005F0100085F0100085F0100085F01000800
:100060005F0100085F0100085F0100085F010008F0
:100070005F0100085F0100085F0100085F010008E0
:100080005F0100085F0100085F0100085F010008D0
:100090005F0100085F0100085F0100085F010008C0
:1000A0005F0100085F0100085F0100085F010008B0
:1000B0009D2A0008D92A00085F0100085F01000896
:1000C0005F0100085F0100085F0100085F01000890
:1000D0005F010008B12C00085F0100085F01000803
:1000E0005F0100085F0100085F0100085F01000870
:1000F0005F0100085F0100085F0100085F01000860
:100100005F0100085F0100080D2B00085F01000877
:100110005F0100085F010008512B00085F01000823
:100120005F0100085F0100085F0100085F0100082F
:10013000DFF80CD000F03EFC00480047F93C000816
:10014000F83600200648804706480047FEE7FEE7ED
:10015000FEE7FEE7FEE7FEE7FEE7FEE7FEE7FEE777
:100160003D2A00083101000840EA01039B0703D043
:1001700009E008C9121F08C0042AFAD203E011F8E6
:10018000013B00F8013B521EF9D27047D2B201E0A8
:1001900000F8012B491EFBD270470022F6E710B58C
:1001A00013460A4604461946FFF7F0FF204610BDE5
:1001B000F0B480EA0102D40F4200B2EB410F02D248
:1001C0000246084611464A0042D0C30DDDB2C1F3D3
:1001D000C752AD1A202D35DAC1F3160141F40002E1
:1001E00004B15242C5F1200602FA06F12A41104438
:1001F000B3EBD05F23D0C4B1012DA0EBC35009DC19
:10020000F0BC4FF0004202EAC352DBB200F500003E
:1002100000F0DFBA400000F1807000EBC350A0F1A5
:10022000807040EAD170490009E0490841EAC07194
:10023000A0EBC35000F50000400800EBC350F0BC39
:1002400000F0BEBA6142012202EB4101001BF6E759
:10025000F0BC704781F00041AAE780F00040A7E7BA
:1002600080EA010210B502F00043400022D04A00AB
:100270001FD0010E01EB1261C0F35600C2F356020B
:1002800040F4000042F40002A0FB022000047F3989
:10029000140400D0401C50EA124001D44000491E12
:1002A000C2B20C0604EBD010401C4008802A02D0D9
:1002B00003E0002010BD20F00100002900DA00203A
:1002C000184310BD30B480EA010202F0004530F05E
:1002D000004221F0004013D090B1C30DD40DC2F301
:1002E0001601C0F31600E41A41F4000140F40002C4
:1002F0007D34914201D3641C00E04900002C02DAF5
:1003000030BC002070474FF400000023914201D31D
:10031000891A034340084FEA4101F7D151B1914294
:1003200002D14FF0004105E002D24FF0010101E09F
:100330006FF0010103EBC450284430BC00F040BA18
:100340002DE9FE4F804681EA0300C00F0C46009065
:1003500021F0004123F00045B8EB0200A94105D28D
:100360004046214690461C460B46024623F000407C
:10037000104347D0270DC7F30A00C3F30A51029078
:10038000401A019040286BDAC3F3130040F4801B3D
:100390000098924620B10023D2EB030A63EB0B0BCB
:1003A00001985946C0F14002504600F0E8F906466F
:1003B0000D4650465946019A00F0F0F910EB08003E
:1003C0006141002487EA115284EAE7731A4340D05E
:1003D000009A62B3019A012A4FEA075215DC001B0A
:1003E00061EB02014FF0004202EA0752CDE9004200
:1003F000001C41F5801132462B4600F074FA03B020
:10040000BDE8F08F40462146F9E7001B61EB020191
:10041000001C41F5801300185B412018A2F500175D
:1004200047EB030140EAD570B6196D4111E06D0844
:100430004FEA360645EAC0754FEA0752001B61EBEA
:100440000201001C41F5801149084FEA30000019F3
:10045000514132462B4603B0BDE8F04F00F034BAAC
:100460000098012240000023D0EB020263EBE0730E
:10047000009821464FEAE074B8EB000061EB0401FC
:10048000E9E783F000435BE781F0004158E72DE99D
:10049000FE4F81EA030404F0004421F0004100947F
:1004A0004FF0000B23F0004350EA01045ED052EA03
:1004B00003045BD0C3F30A54C1F30A552C44A4F2DD
:1004C000F3340194A0FB0254C1F3130141F48011F1
:1004D000C3F3130343F4801301FB024400FB034EF8
:1004E000840A970A44EA815447EA8357A4FB0768C1
:1004F00002958D0A05FB07854FEA932C04FB0C54EB
:100500002705029D4FEA065847EA1637B5EB08055E
:100510006EEB070C870E920E47EA811742EA8312B0
:10052000A7FB0201B6EB0B0164EB00042B0D43EAC1
:100530000C335E1844EB1C50DA465146E7FB0201CF
:10054000C5F313044FEA0B3343EA14534FEA043262
:10055000019C43EA0603A4F10C040294009CCDE93B
:1005600000B400F0C0F903B0BDE8F08F00200146F0
:10057000F9E72DE9F04D81EA030404F0004B21F086
:10058000004514464FF0000A23F0004150EA0502EE
:1005900020D054EA01021DD0C5F30A570246C5F324
:1005A0001303C1F31300C1F30A5640F4801543F45A
:1005B0008013A7EB0608101BD64608F2FD3873EB34
:1005C000050002D308F1010801E092185B41B8F17F
:1005D000000F03DA00200146BDE8F08D00204FF443
:1005E0008011064684460EE0171B73EB050705D302
:1005F000121B63EB050306434CEA010C49084FEA62
:10060000300092185B4150EA0107EDD152EA030035
:1006100012D082EA040083EA0501084305D0101BCA
:10062000AB4106D20122002306E000224FF0004336
:1006300002E06FF0010253101AEB06004CEB085178
:1006400010EB0A0041EB0B01BDE8F04D00F03CB9A6
:10065000C10F80EAE0700844CA079623002100F029
:10066000B8B896230022114600F0B3B820F000403D
:10067000C10DC0F3160040F400007F2901DA00200C
:100680007047962903DCC1F19601C840704796393E
:100690008840704700F0004230F000400AD0C10DA1
:1006A00001F56071C0F3160042EA0151C20840072B
:1006B0001143704700200146704701F0004330B4F9
:1006C00021F0004150EA010206D00A0DA2F5607245
:1006D000C1F31301002A02DC30BC00207047440F34
:1006E00044EAC104C100E01830BC00EBC25000F085
:1006F00067B80000002801DBC0F10040002901DBE1
:10070000C1F1004181427047002801DBC0F1004087
:10071000002901DBC1F10041884270472DE9F05FFB
:100720000546002092469B46884606468146402460
:100730001BE0284641464746224600F04DF9534605
:100740005A46C01A914110D311461846224600F06D
:1007500016F82D1A67EB01084F46224601200021AA
:1007600000F00DF817EB00094E41201EA4F1010422
:10077000DFDC484631462A464346BDE8F09F202A42
:1007800004DB203A00FA02F1002070479140C2F1E8
:10079000200320FA03F3194390407047202A06DB18
:1007A000CB17203A41FA02F043EAE07306E041FA3F
:1007B00002F3D040C2F1200291400843194670472D
:1007C0000029A8BF7047401C490008BF20F0010065
:1007D000704710B4B0FA80FC00FA0CF050EA010443
:1007E00004BF10BC704749B1CCF1200421FA04F4D5
:1007F00011FA0CF118BF012121430843A3EB0C01AE
:10080000CB1D4FEA00614FEA102042BF002010BC10
:10081000704700EBC35010440029A4BF10BC7047C0
:10082000401C490008BF20F0010010BC7047F0B424
:10083000002802DCF0BC00207047C0F3C751C0F3B1
:10084000160040F40000CA0701D14000491E3F22B3
:1008500002EB6105002211464FF4000626FA01F36F
:100860001344D418844201D8001B1A464000491C86
:100870001729F3DD5100814202D24FF0FF3100E031
:10088000002102EBC550F0BCFFF79ABF10B5410044
:100890000CD0C0F3C751962908DC7E2909DC06DBA1
:1008A000410204D000F0004040F07E5010BD002016
:1008B00010BDC1F19604C4F1200100FA01F1E0403D
:1008C000FFF77EFFA04010BD10B5141E73F10004A9
:1008D00008DA401C41F1000192185B411A4301D132
:1008E00020F0010010BD2DE9F04D92469B4611B15C
:1008F000B1FA81F202E0B0FA80F220329046FFF7BE
:100900003EFF04460F4640EA0A0041EA0B01534607
:100910005A46084313D0114653EA010019D0C8F1D2
:100920004002504600F058F805460E4650465946DB
:100930004246FFF724FF084305D0012004E020468B
:100940003946BDE8F08D0020054346EAE0762C43A9
:1009500037430A986305E40AA0EB08000022FD0A69
:1009600044EA47540A3002D500200146E9E7010570
:1009700010196941DDE9084500196941BDE8F04DEC
:10098000A2E700F0004220F00040C10DC0F31600C5
:1009900040F400007F2901DA00207047962903DC2B
:1009A000C1F19601C84001E096398840002AF4D090
:1009B00040427047064C074D06E0E06840F00103F6
:1009C00094E8070098471034AC42F6D3FFF7B4FB25
:1009D0006842000888420008202A04DB203A21FAF5
:1009E00002F00021704721FA02F3D040C2F1200248
:1009F0009140084319467047420005D0C0F3C752E2
:100A00005242914201DC0020704700EBC150704718
:100A100070B521F0004303430CD0C1F30A55002404
:100A2000D5EB040564EB0403D617AD1AB34102DB22
:100A30000020014670BD201841EB025170BD0EB57B
:100A4000C10F80EAE0700844CA07002140F2334336
:100A50008DE80E000A460B46FFF745FF03B000BDC8
:100A60000EB540F2334102910021CDE900110A4652
:100A70000B46FFF738FF03B000BD70B5C1F30A5253
:100A800001F000450024C1F3130140F2FF3341F4AB
:100A900080119A4201DA002070BD40F233439A423D
:100AA000A2F2334203DC5242FFF796FF00E090408F
:100AB0002C43F1D0404270BD21B1826842F0010266
:100AC000826003E0826822F001028260704721B1F7
:100AD000826842F48072826003E0826822F480724D
:100AE0008260704721B1826842F48012826003E024
:100AF000826822F4801282607047014600208A6872
:100B000002F004020AB1012000E000207047014613
:100B100000208A6802F008020AB1012000E00020EB
:100B20007047000030B502460020002350680F4C8B
:100B300020400D790C6844EA0524204350609068F9
:100B40000B4C2040D1E902542C434D7944EA450432
:100B500020439060D06A20F470000C7C641EE4B2E4
:100B6000234340EA0350D06230BD0000FFFEF0FF97
:100B7000FDF7F1FFF0B504460D4600200021092DD8
:100B800011DDE068A5F10A0606EB4607072606FA1E
:100B900007F18843A5F10A0606EB460603FA06F1BB
:100BA0000843E0600CE0206905EB4507072606FADC
:100BB00007F1884305EB450603FA06F10843206177
:100BC000072A0FDA606B561E06EB86071F2606FA09
:100BD00007F18843561E06EB860605FA06F1084320
:100BE000606322E00D2A0FDA206BD61F06EB860722
:100BF0001F2606FA07F18843D61F06EB860605FA7C
:100C000006F10843206310E0E06AA2F10D0606EB4E
:100C100086071F2606FA07F18843A2F10D0606EBA8
:100C2000860605FA06F10843E062F0BD816841F0EE
:100C3000080181607047816841F00401816070475C
:100C400000BFFEE708480068012806D10748006891
:100C5000012802D10649087002E00020044908700A
:100C6000034800787047000094000020980000209E
:100C7000CC0000200020014908707047CF00002000
:100C80000020014908707047CE00002000B587B0F1
:100C90004FF4004001F0A4FB0121480201F0CCFB1D
:100CA0000121042001F0C8FB2020ADF8180000202D
:100CB0008DF81B0006A91D4800F08EFD0020019054
:100CC00001208DF808008DF80900C0040390002071
:100CD000049001208DF8140001A91548FFF722FFA8
:100CE0000723012205211248FFF744FF0121104884
:100CF000FFF7EDFE01210E48FFF7F4FE01210C483D
:100D0000FFF7DAFE0A48FFF791FF00BF0848FFF738
:100D1000FEFE0028FAD10648FFF78DFF00BF044809
:100D2000FFF7EBFE0028FAD107B000BD0008014034
:100D30000024014000B585B00121042001F07CFBB6
:100D40000121480701F068FB1020ADF810000320D6
:100D50008DF8120000208DF8130004A90A4800F055
:100D60003BFD00200090019002900390694600F046
:100D700023FA6421002000F039FA0121002000F05C
:100D800007FA05B000BD00000008014000B58BB0B7
:100D90000121084601F030FB114800F043FA1148E8
:100DA0000090114801900020029001200390002043
:100DB000049080200590400006908000079020203D
:100DC0000890C001099000200A906946044800F08C
:100DD000CFFA0121024800F019FA0BB000BD000063
:100DE000080002404C240140DC00002008B501212D
:100DF000042001F021FB8020ADF8000048208DF890
:100E0000030003208DF802006946024800F0E4FC6C
:100E100008BD00000008014008B50121102001F0C4
:100E20000BFB1020ADF8000003208DF8020010200D
:100E30008DF8030069460D4800F0CEFC0122102118
:100E40000A4800F061FD2020ADF8000003208DF875
:100E5000020010208DF803006946044800F0BCFC35
:100E600000222021014800F04FFD08BD0010014084
:100E700010B54FF4A06001F04BF910BD10B501F0B2
:100E8000EBFA4FF4803001F0A9FB01F005FC0446B9
:100E9000012C24D1102000F0CDFB022000F0D8FB63
:100EA000002001F08FFB002001F0CAFBA00201F03E
:100EB000BBFB4FF4E011200401F0D4FB012001F052
:100EC000CBFB00BF392001F057FB0028FAD00220ED
:100ED00001F0D6FB00BF01F06DFB0828FBD110BD6F
:100EE00008B50121082001F0A7FA4020ADF8000064
:100EF00010208DF8030003208DF802006946124887
:100F000000F06AFC8020ADF8000010208DF803008E
:100F100003208DF8020069460B4800F05DFC4FF499
:100F20000070ADF8000010208DF8030003208DF84C
:100F300002006946044800F04FFC4FF4007102487B
:100F400000F0E0FC08BD0000000C01407FB5054644
:100F50000C460121084601F05FFAADF80850ADF8E3
:100F600004400020ADF80A00ADF8060001A94FF0DA
:100F7000804001F03FFE01221146900701F028FE5B
:100F80001C208DF8000000208DF8010003208DF852
:100F9000020001208DF80300684601F081F801216C
:100FA000880701F0F8FD7FBD7FB505460C4601219D
:100FB000022001F031FAADF80850ADF804400020ED
:100FC000ADF80A00ADF8060001A90F4801F012FEC5
:100FD00020210D4801F005FE012211460A4801F0CA
:100FE000F7FD1D208DF8000001208DF801008DF81F
:100FF00002008DF80300684601F052F80121024812
:1010000001F0C9FD7FBD0000000400407FB505462A
:101010000C460121082001F0FFF9ADF80850ADF8A9
:1010200004400020ADF80A00ADF8060001A90E4802
:1010300001F0E0FD012211460B4801F0C9FD32200C
:101040008DF8000000208DF8010003208DF80200CB
:1010500001208DF80300684601F022F801210248C2
:1010600001F099FD7FBD0000000C00407FB50546F2
:101070000C460121082001F0CFF9ADF80850ADF879
:1010800004400020ADF80A00ADF8060001A90E48A2
:1010900001F0B0FD012211460B4801F099FD362008
:1010A0008DF8000000208DF8010003208DF802006B
:1010B00001208DF80300684600F0F2FF012102488C
:1010C00001F069FD7FBD00000010004010B586B042
:1010D00004460121880301F0AFF90121042001F049
:1010E000ABF94FF40070ADF8140018208DF817001C
:1010F00003208DF8160005A9224800F06DFB4FF47F
:101100008060ADF8140004208DF8170005A91D4873
:1011100000F062FB01A801F00CFF01940020ADF883
:101120000800ADF80A00ADF80C000C20ADF80E0078
:101130000020ADF8100001A9134801F085FE25201C
:101140008DF8000001208DF801008DF802008DF867
:101150000300684600F0A4FF012240F225510A482E
:1011600001F04DFE012240F22771074801F047FED1
:101170000121054801F000FE00200449087006B076
:1011800010BD00000008014000380140D8000020D8
:1011900039B1084A1268012383401A43054B1A608B
:1011A00006E0044A1268012383409A43014B1A6007
:1011B000704700000074004030B5002200230A4C44
:1011C000226840F6FE748440A243D1E900452C43D6
:1011D0008D682C43CD6844EA050303FA00F42243EA
:1011E000014C226030BD00000074004008B50022B0
:1011F0000092054A009200F10802009B1A440092F6
:10120000009A116008BD00000074004021B102681E
:1012100042F00102026004E002684FF6FE731A40D9
:101220000260704701684FF6FE72114001600021B4
:10123000016041608160C1604B49884208D14A49E0
:101240000839496841F00F01474A083A51608AE07D
:1012500045491431884208D143490839496841F069
:10126000F001414A083A51607DE03F492831884207
:1012700008D13D490839496841F470613A4A083A51
:10128000516070E038493C31884208D1364908390C
:10129000496841F47041344A083A516063E0324988
:1012A0005031884208D130490839496841F47021E9
:1012B0002D4A083A516056E02B496431884208D1E2
:1012C00029490839496841F47001274A083A5160B0
:1012D00049E025497831884208D1234908394968CD
:1012E00041F07061204A083A51603CE01F49884251
:1012F00006D1011F096841F00F01021F116032E0A1
:101300001A491431884208D11849091F096841F067
:10131000F001164A121F116025E014492831884255
:1013200008D11249091F096841F470610F4A121F60
:10133000116018E00D493C31884208D10B49091F62
:10134000096841F47041094A121F11600BE0074916
:101350005031884207D10549091F096841F47021BD
:10136000024A121F11607047080002400804024040
:1013700010B50022026847F6F0739A430C6A8B6836
:1013800023430C6923434C6923438C692343CC6971
:1013900023434C6A23438C6A23431A430260CB687D
:1013A00043600B6883604B68C36010BD30B5034673
:1013B000002016E0B3F900509C68645D0C541C8852
:1013C000641C24B21C80B3F90040B3F90450AC4251
:1013D00001DB00241C80441C20B2DC88641E24B283
:1013E000DC80B3F90640002C01DD9042E2DB30BD29
:1013F000704770B50346002016E00C5CB3F902603C
:101400009D68AC555C88641C24B25C80B3F90240D2
:10141000B3F90450AC4201DB00245C80441C20B2D0
:10142000DC88641C24B2DC80B3F90640B3F90450B4
:10143000AC4201DA9042E0DB70BD70B5034600209B
:1014400018E031F81040B3F902609D6825F81640A5
:101450005C88641C24B25C80B3F90240B3F9045088
:10146000AC4201DB00245C80441C20B2DC88641C9C
:1014700024B2DC80B3F90640B3F90450AC4201DA7F
:101480009042DEDB70BD00002DE9F04104460D46C0
:1014900016461F46264806602648076026490C80E7
:1014A00026490D8024480088502803DB0846008820
:1014B000502810DA22480068401C2149086008467C
:1014C0000068142807DB01F029F900201D49086095
:1014D0001DA001F055FDFFF7B5FB012807D100F075
:1014E00043FC00F0FBF81CA001F04AFD0CE001F009
:1014F00053F91E480068012803D11DA001F040FDEA
:1015000002E020A001F03CFD0E480068012803D154
:101510001FA001F035FD02E00BA001F031FD20A07D
:1015200001F02EFD1EA001F02BFDBDE8F0810000B2
:101530008C00002090000020840000208600002005
:10154000AC000020A00000205B5B342CCDD1C2E4B5
:101550005D5D0D0A000000005B5B332CB4D6B5F76F
:10156000CDEAB3C95D5D0D0A000000009C000020BB
:101570005B5B332CD5FDD4DAB5F7B9E25D5D0D0ABE
:10158000000000005B5B332C2D2D2D5D5D0D0A00EE
:101590005B5B342CC1ACBDD35D5D0D0A0000000067
:1015A0005B5B352CC1ACBDD35D5D0D0A0000000056
:1015B00070B50446002504201B4908700EE01A4847
:1015C0000078401E194951F82000174A127841F856
:1015D000220015480078401E134908701248007810
:1015E0000028ECDC1148046000200F49087015E069
:1015F0000E4A0D4B1B7852F823100D4A0A4B1B78EC
:1016000052F82300FEF72CFE06462946FEF7D0FDD1
:10161000054605480078401C0349087002480078D8
:101620000528E5DB284670BD780000204401002035
:10163000E84000080549096821F01001034A1160DB
:101640001146096801431160704700000020024004
:1016500001460020034A106800F03800084310607B
:1016600070470000002002402DE9FE4F04460D4661
:101670000026E1692162A169E161A561E16A606911
:10168000FEF7EEFD0290A16A2069FEF7E9FD8246B1
:10169000216AA068FEF7E4FD0190E1696068FEF749
:1016A000DFFD0090A1692068FEF7DAFD834600990E
:1016B000FEF77EFD81460199FEF77AFD8046514690
:1016C000FEF7C8FD07460299FEF7C4FD0646A16A6B
:1016D000E162A6623046BDE8FE8F000010B52E48DC
:1016E0000068012857D12D480068012853D12C48A3
:1016F000006840F6FC0188420DDD2A480088401C45
:1017000028490880084601880020FFF76FFD26A0C1
:1017100001F036FC16E02248006840F2A4618842DD
:101720000DDA20480088401E1E49088008460188BE
:101730000020FFF75BFD1CA001F022FC02E01FA0CF
:1017400001F01EFC22480068B0F5FA6F0DDD21485B
:101750000088401C1F490880084601880020FFF7C8
:1017600045FD11A001F00CFC15E019480068B0F52A
:10177000AF6F0DDA17480088401E164908800846EA
:1017800001880020FFF732FD07A001F0F9FB02E01D
:101790000AA001F0F5FB10BD940000209800002085
:1017A0008C000020880000205B5B362CD5FDD4DA4D
:1017B000CEA2B5F75D5D0D0A000000005B5B362C24
:1017C000B9E2C7BFCACAD6D05D5D0D0A00000000ED
:1017D000900000208A0000202DE9F04102460025FB
:1017E0000026002000230024002791F803C00CF0FD
:1017F0000F0591F803C00CF0100CBCF1000F03D0E2
:1018000091F802C04CEA050591F800C0BCF1000F48
:1018100031D0146800202BE04FF0010C0CFA00F3DB
:10182000B1F800C00CEA03069E4220D183004FF0BD
:101830000F0C0CFA03F7BC4305FA03FC4CEA040452
:1018400091F803C0BCF1280F06D14FF0010C0CFA3F
:1018500000FCC2F814C00AE091F803C0BCF1480FC4
:1018600005D14FF0010C0CFA00FCC2F810C0401C6E
:101870000828D1D31460B1F800C0BCF1FF0F34DDEB
:10188000546800202EE000F1080C4FF0010808FA1F
:101890000CF3B1F800C00CEA03069E4221D183008C
:1018A0004FF00F0C0CFA03F7BC4305FA03FC4CEAAB
:1018B000040491F803C0BCF1280F05D100F1080C15
:1018C00008FA0CF8C2F8148091F803C0BCF1480F74
:1018D00007D100F1080C4FF0010808FA0CF8C2F823
:1018E0001080401C0828CED35460BDE8F081024629
:1018F0000020D3680B400BB1012000E000207047AE
:1019000041617047016170470AB1016100E04161C6
:10191000704700000148007870470000CF000020A9
:101920000148007870470000CE0000200148008880
:10193000704700008800002004480088044A12888C
:10194000811801EBD170401070470000C4000020E6
:10195000C600002004480088044A1288811801EB60
:10196000D170401070470000C8000020CA0000205D
:1019700001480088704700008A0000200148006884
:1019800070470000E000002000BFFEE72DE9F04FA7
:101990008DB004460D461646994600200C90304600
:1019A000FEF778FECDE902012846FEF773FE0746F2
:1019B0004C4A4D4BFEF76BFDCDE90001DDE90223FA
:1019C000FEF7D7FDCDE90401FEF777FE83464946D1
:1019D0004FF08040FEF744FC0190FEF75BFE0746A7
:1019E00088465846FEF756FECDE9000102F048FA57
:1019F0003A464346CDE90201FEF7BBFDCDE90401BD
:101A0000FEF75BFE0B905846FEF744FECDE9000161
:101A100002F0D4F80022354BCDE90201FEF790FC2C
:101A200000224FF08043CDE90401FEF7A2FD0746F6
:101A3000FEF743FE82465846FEF72CFECDE9020132
:101A400002F0BCF80022294BCDE90401FEF778FC36
:101A500081F000410746FEF730FE0A90CDF824A041
:101A60004FF07E500B99FEF7A3FB08905846FEF707
:101A700011FECDE9020102F0A1F800224FF040432F
:101A8000CDE90401FEF703FD0746FEF716FE0790B9
:101A90004FF07E500B99FEF7DDFB069050460899FB
:101AA000FEF710FC206008990A98FEF70BFC6060B6
:101AB000DDE90810FEF706FCA060DDE90701FEF78E
:101AC00001FC206108990698FEF7FCFB606100208C
:101AD000A0610021E16121626062A162E1620DB05A
:101AE000BDE8F08F38E92F54FB2119400000F03F8A
:101AF00010B5472140F2E730FFF756FAFFF7C6F876
:101B0000FFF744F964220249024800F0B0F810BD22
:101B10002C3200202032002010B5FFF70BF910BD49
:101B200010B500F08BFF00F051F800F017F84FF4FB
:101B3000E13000F0AFF800F089F800F00BF800F0A9
:101B400051F8FFF7E9FFFFF7D3FF00F0CBF800F003
:101B5000CDF810BD10B5FFF75FF910BD10B5FFF758
:101B600087F910BD00210C4A11705170917000204E
:101B700005E000220849C91C0A54411C08B2072884
:101B8000F7DB0021044A5172044A1170044A1170B3
:101B9000044A117070470000180100201E00002048
:101BA0001F0000202000002030B50B4600240480D8
:101BB00044808280C4808360002104E00024856822
:101BC0006C544C1C21B29142F8DB30BD10B5FFF7CC
:101BD00055F910BD704710B5FFF7C4FFFFF7FAFFC6
:101BE00010BD000030B5164800684FF47A72B0FBA3
:101BF000F2F1B1F1807F01D301201DE021F07F409F
:101C0000401E4FF0E022506150170F22002807DAE3
:101C100013071D0E0B4B00F00F04241F1D5503E08E
:101C200013071C0E084B1C5400BF00204FF0E0228D
:101C3000906107201061002008B100BFFEE730BDB1
:101C4000FC00002018ED00E000E400E010B54721A2
:101C500040F2E730FFF77AF9472140F2E730FFF72B
:101C6000D5F9472140F2F310FFF700FA10BD30B567
:101C70000B460024048044808280C480836000215D
:101C800005E00024856825F811404C1C21B29142E2
:101C9000F7DB30BD10B5044600F004F82046FFF72E
:101CA00015FA10BD10B5002406E0002009490855BA
:101CB00009490855601C04B2642CF6DB642205490E
:101CC0000648FFF771FF642203490548FFF76CFFE0
:101CD00010BD000058310020BC31002040310020F0
:101CE0004C31002010B5FFF781F810BD10B5FFF79B
:101CF000F7F80A221049114800F0B4F90A221049F5
:101D0000104800F0AFF9104B104A4FF07C511048CA
:101D1000FFF73CFE0C4B0D4A4FF07C510D48FFF78E
:101D200035FE0D4A0D490E4800F0A6F80A4A0B4947
:101D30000C4800F0A1F810BDD0190020800100204F
:101D40006002002090010020F4FD343F00007A433F
:101D5000A0010020D0010020000016440000A04196
:101D6000000200203002002010B528480068012839
:101D70001ED12748006840F6C411884205DC24487B
:101D8000006840F2DC5188420EDA22480068401CAC
:101D9000204908600846006803280EDB00201B4924
:101DA00008601C49086008E000201A49086004E047
:101DB00000F0B4FC002017490860174800680128AB
:101DC0001DD11648006840F69801884204DC13488B
:101DD0000068B0F5966F0EDA11480068401C104993
:101DE00008600846006803280EDB00200A490860E6
:101DF0000B49086008E000200949086004E000F091
:101E00008DFC00200649086010BD000094000020F1
:101E10008C000020BC0000209800002090000020D2
:101E2000C000002070B5044611480088401C1049CD
:101E3000088008460088A04219DB00200880102195
:101E40000C48FFF754FDC0F10100C5B22A4610212D
:101E50000848FFF759FD20210648FFF748FDC0F16B
:101E60000100C5B22A4620210248FFF74DFD70BD92
:101E70001C000020001001402DE9F04F85B0044601
:101E8000894692464846FEF705FC0746334A344BDE
:101E9000FEF7FDFA0546FEF710FC049051464FF0A0
:101EA0007E50FEF70FFA0390DDE90310FEF7D8F934
:101EB000054602F04BF8834659465846FEF7D0F9DE
:101EC00002904FF0804002F02BF8019059460198A3
:101ED000FEF7C6F906464FF07E51FEF769F9054652
:101EE0000299FEF765F9009000990298FEF7EAF969
:101EF00020604FF080402168FEF7B2F960602068F2
:101F0000A0604FF07E50E06001460298FEF7A2F913
:101F100006464FF08041FEF7A3F905460099FEF70B
:101F2000D1F9206159460198FEF79AF907464FF01A
:101F30007E51FEF792F906460299FEF739F90546F9
:101F40000099FEF7BFF9606100212162E161A161A2
:101F5000E162A162616205B0BDE8F08F38E92F54FB
:101F6000FB21094000BFFEE72DE9F04104460D4684
:101F700000274FF047412846FEF7BCFB04D3294910
:101F80002846FEF7C1FB00D200252068B0F1005FB3
:101F900003D325492068884205D924A0216800F090
:101FA000EFFF00BFFEE760892189884206DB2289B6
:101FB000618925A000F0E4FF00BFFEE7207B38B177
:101FC0006389226852F823106068FEF743F9606065
:101FD00029466068FEF7ECF860606189206840F887
:101FE00021506089401C218990FBF1F201FB120015
:101FF0006081207B18B9608908B901202073207B9B
:1020000008B1208901E06089401C86B23046FEF7A5
:1020100028FB804641466068FEF754F9074638467B
:10202000BDE8F08100FEFF46000002204552523A12
:10203000206275666665723D3078257020696E761F
:10204000616C6964210A00004552523A20696E644D
:1020500065783D2564203E3D2073697A653D2564A1
:102060000A00000010B500230160028100244481B1
:102070000473446000BF03E0002441F823405B1C6C
:102080009342F9DB10BD704700F01F02012191401F
:10209000024A430942F823107047000080E200E042
:1020A00070B5002100230F22C47804B3154C2468B6
:1020B00004F4E064C4F5E064210AC1F10403CA40F9
:1020C000447804FA03F184781440214309010E4C4A
:1020D0000678A155047804F01F050124AC4005786A
:1020E0006D11AD0005F1E025C5F8004109E0047867
:1020F00004F01F050124AC40044D0678761145F824
:10210000264070BD0CED00E000E400E080E100E05E
:1021100002490143024A1160704700000000FA05BD
:102120000CED00E07047000010B5FFF7F3FB80B145
:102130000848038808480288084801880848008839
:10214000FFF7A2F90748018807A000F019FFFEF782
:1021500091FD10BD16000020140000201200002088
:10216000100000200E0000205B5B352C25645D5DB7
:102170000D0A00002DE9F041FFF7D2FB00287DD0C9
:102180007848006858B940217748FFF7B9FB8021AB
:102190007548FFF7B7FB0120724908600AE080210B
:1021A0007148FFF7ADFB40216F48FFF7ABFB002004
:1021B0006C4908606B48006801284ED1FFF7B6FBF8
:1021C0006A490880084601880020FFF70FF8684830
:1021D00004882046FEF745FA064631466548FFF773
:1021E000C3FE0546FEF742FA84B2634804802046E7
:1021F000FEF737FA074639466048FFF735FA0646D4
:102200005F49FDF7D5FF0546FEF730FA84B2204658
:10221000FEF727FA0646FFF7CBF90546FEF726FA42
:1022200084B25848048054480088FEF71AFA0546DC
:10223000012101F0FDFD50480088FEF712FA054625
:10224000012101F0ABFDFFF777FB4F4908804F48B4
:102250000088401C4D4908804FE0FFF789FB434947
:102260000880084601880020FEF7C0FF4048048827
:102270002046FEF7F6F90646314600E070E0444895
:10228000FFF772FE0546FEF7F1F984B2414804807B
:102290002046FEF7E6F9074639463F48FFF7E4F9DE
:1022A00006463749FDF784FF0546FEF7DFF984B29D
:1022B0002046FEF7D6F90646FFF77AF90546FEF7FF
:1022C000D5F984B23548048032480088FEF7C9F950
:1022D0000546002101F0ACFD2E480088FEF7C1F94B
:1022E0000546002101F05AFDFFF734FB2C49088018
:1022F00026480088401C2549088028480088FEF7A9
:10230000B0F9054601F0A8FC20480088B0F5FA7F36
:1023100016DB00201D49088001F0C0FB2149086040
:1023200001F00AFC204908601E4801681FA000F067
:1023300027FE1D48016820A000F022FE00F0C8F929
:1023400008480068012806D1144802880D48018811
:102350001DA000F015FEFA20FFF764FDFEF790FCCB
:10236000BDE8F08108000020000C01400E000020B4
:10237000DC0000208001002010000020A0010020CF
:102380000000614418000020140000200C00002010
:102390009001002012000020D00100201A0000202F
:1023A0001600002000000020040000205B5B312CA0
:1023B00025645D5D0D0A00005B5B322C25642525DC
:1023C0005D5D0D0A0000000025642C25640D0A00E7
:1023D0000146C88808B9012070470020FCE70000CA
:1023E00001460020034A506820F4404008435060F2
:1023F000704700000010024029B1064A52690243AA
:10240000044B5A6104E0034A52698243014B5A610A
:10241000704700000010024029B1064AD269024309
:10242000044BDA6104E0034AD2698243014BDA616A
:10243000704700000010024029B1064A9269024329
:10244000044B9A6104E0034A92698243014B9A610A
:1024500070470000001002400F48006840F0010083
:102460000D490860084640680C4908400A49486020
:10247000084600680A49084007490860084600689D
:1024800020F4802008600846406820F4FE00486080
:102490004FF41F0088607047001002400000FFF8F2
:1024A000FFFFF6FE30B500210022002400232D4D51
:1024B0006D6805F00C0121B1042905D0082923D14C
:1024C00005E0294D056022E0274D05601FE0254D00
:1024D0006D6805F47012234D6D6805F48034022593
:1024E00005EB92421CB9214D554305600BE01D4D93
:1024F0006D6805F400351DB11C4D5543056002E0C3
:10250000194D5543056002E0174D056000BF00BF3F
:10251000144D6D6805F0F0010909154D6B5C0568F7
:10252000DD4045600F4D6D6805F4E061090A104D0E
:102530006B5C4568DD4085600A4D6D6805F460514F
:10254000C90A0B4D6B5C4568DD40C560054D6D6883
:1025500005F44041890B074D6B5CC568B5FBF3F58D
:10256000056130BD0010024000127A0000093D00F4
:10257000E4000020F400002010B5014600220023F2
:1025800000204A11012A02D1094C236806E0022AE0
:1025900002D1074C236A01E0054C636A01F01F0277
:1025A000012494401C400CB1012000E0002010BD2B
:1025B000001002400248406800F00C007047000024
:1025C0000010024001460020034A506820F0F0004D
:1025D000084350607047000000100240114909682C
:1025E00021F480310F4A11601146096821F48021DD
:1025F0001160B0F5803F03D0B0F5802F0ED106E01A
:102600000849096841F48031064A116007E005492C
:10261000096841F4A021034A116000E000BF00BF37
:10262000704700000010024001460020034A506835
:1026300020F4E06008435060704700000010024042
:1026400001460020034A506820F4605040EAC1006F
:102650005060704700100240014908667047000052
:102660000000424202460020044B586820F47C10CF
:1026700042EA01031843014B5860704700100240C2
:1026800001460020034A506820F0030008435060D0
:10269000704700000010024038B500200090002470
:1026A000002500BF3120FFF767FF05460098401C5A
:1026B00000900098B0F5A06F01D0002DF2D031202D
:1026C000FFF75AFF08B1012400E00024204638BD7E
:1026D00000200749088040F6FF7006490880002066
:1026E0000549088040F6FF700449088070470000E3
:1026F000C4000020C6000020C8000020CA0000203E
:1027000070B504460025012221460348FEF74EFE1F
:10271000C5B2284670BD00004031002010B5002031
:102720000D4908600D4908600D4908600D490860B1
:102730000D4908600D4908600D4908600D490860A1
:102740000D49086064200D4908800D4908800DA0DE
:1027500000F016FC10BD000094000020980000203E
:10276000A4000020A80000209C000020AC00002055
:10277000B0000020BC000020C00000208800002025
:102780008A0000205B5B362CD6D8D0C2B5F7B9E200
:102790005D5D0D0A0000000010B555480068012875
:1027A00071D154480088502803DB534800885028D2
:1027B0000EDA52480068401C50490860084600681C
:1027C000142804DBFFF7AAFF00204D4908608EE0C3
:1027D00000204A49086001204949086049480068CA
:1027E000142805DA47480068401C464908607EE026
:1027F0004548006880BB3F480088B0F5FA6F0CDAA6
:1028000042480068401C41490860084600680328A7
:1028100022DB01203C4908601EE03D480068401C66
:102820003B49086008460068032815DB0020086063
:1028300038480088FA280ADA36480088801C35496A
:102840000880084601880020FEF7D0FC01E0FFF771
:1028500065FF00202D4908602F480068002846D1F8
:102860002548008840F2A46188420DDA2B480068B0
:10287000401C2A49086008460068032837DB01200D
:102880002549086033E01FE025480068401C2449C2
:10289000086008460068032829DB002008602148FA
:1028A0000088FA280ADA1F480088801C1D49088021
:1028B000084601880020FEF799FC01E0FFF72EFF93
:1028C00000201649086012E00A480088502803DCFE
:1028D00009480088502805DD00200A4908600120C9
:1028E0000349086064200B4908800E49088010BD28
:1028F0009C0000208400002086000020AC00002006
:10290000A0000020B000002094000020A4000020BF
:10291000B40000208800002098000020A8000020BB
:10292000B80000208A0000207047000010B504465F
:10293000E1B2054800F0F9FA00BF4021024800F07A
:1029400027FA0028F9D010BD0038014010B500F07A
:1029500001F810BD0CB500200190009033480068CC
:1029600040F480303149086000BF3048006800F40E
:10297000003000900198401C0190009818B901980F
:10298000B0F5A06FF1D12948006800F4003010B113
:102990000120009001E0002000900098012843D120
:1029A0002348006840F0100021490860084600688C
:1029B00020F0030008600846006840F0020008604C
:1029C0001A48406819494860084640684860084607
:1029D000406840F4806048600846406820F47C10FD
:1029E00048600846406840F4E810486008460068BF
:1029F00040F08070086000BF0C48006800F0007074
:102A00000028F9D00948406820F0030007494860D1
:102A10000846406840F00200486000BF0348406834
:102A200000F00C000828F9D10CBD00000010024095
:102A30000020024010B500F02FF910BD10B513486A
:102A4000006840F0010011490860084640681049DC
:102A500008400E494860084600680E4908400B4986
:102A600008600846006820F4802008600846406836
:102A700020F4FE0048604FF41F008860FFF766FFF7
:102A80004FF000600449086010BD000000100240D3
:102A90000000FFF8FFFFF6FE08ED00E010B5012191
:102AA000880700F084F8012803D10121800700F095
:102AB0006FF807480088401C0549088008460088D0
:102AC000022804DB0020088001200249087010BDA4
:102AD000D2000020CE00002010B50121084800F0EF
:102AE00066F818B10121064800F052F80548008840
:102AF00000F02EFA04480068401C0349086010BD2D
:102B000000040040DC000020E000002010B501219E
:102B10000C4800F04CF8012803D10121094800F0CD
:102B200037F809480088401C00B207490880084669
:102B3000B0F900001E2804DB0020088001200349B2
:102B4000087010BD000C0040D4000020CF00002011
:102B500010B501210B4800F02AF8012803D101210A
:102B6000084800F015F808480088401C064908800D
:102B700008460088022804DB002008800120034961
:102B8000087010BD00100040D6000020D0000020CA
:102B9000CA430282704721B1028842F001020280DA
:102BA00004E002884FF6FE731A400280704730B589
:102BB0000246002000230024158A05EA01039589B6
:102BC00005EA010413B10CB1012000E0002030BD82
:102BD0001AB183890B43838102E083898B4383810C
:102BE000704782884FF68F731A40828082880A432A
:102BF00082807047002202881D4B98420ED01D4BE8
:102C000098420BD0B0F1804F08D01B4B984205D0B2
:102C10001A4B984202D01A4B984204D14FF68F7348
:102C20001A404B881A43174B984207D0164B9842CC
:102C300004D04FF6FF431A40CB881A4302808B889A
:102C400083850B8803850A4B98420BD0094B984229
:102C500008D00E4B984205D00D4B984202D00D4B38
:102C6000984201D10B7A03860123838270470000CA
:102C7000002C0140003401400004004000080040E6
:102C8000000C0040001000400014004000400140D3
:102C900000440140004801400448006820B1034856
:102CA0000068401E0149086070470000F8000020DD
:102CB00008B50020009040F22551204800F075F83A
:102CC00058B12520FFF7E0F91C4800F029F9C0B2FF
:102CD00000909DF8000000F047F90821174800F027
:102CE00057F8012806D10821144800F02DF81348A0
:102CF00000F016F940F22771104800F056F8E0B1E4
:102D000040F227710D4800F028F82520FFF7BCF9A4
:102D10006846FFF7F5FC9DF80010084800F005F93B
:102D20000748FFF755FB40B1002006490870002214
:102D300040F22771014800F062F808BD00380140F8
:102D400040310020D800002001F40072B2F5007F6D
:102D500000D100BFCA430280704710B50022002393
:102D600040F66A14A14200D100BF0A120124944027
:102D7000A3B2DC43048010BD21B1828942F4005229
:102D8000828104E082894DF6FF731A408281704788
:102D900002460020B1F5007F00D100BF13880B4030
:102DA0000BB1012000E00020704770B502460024FE
:102DB00000230025002040F66A16B14200D100BF72
:102DC000C1F3421501F01F03012606FA03F3012D9A
:102DD00002D19689334006E0022D02D1168A334093
:102DE00001E0968A33400C12012606FA04F4168894
:102DF000344013B10CB1012000E0002070BDF0B5EB
:102E00000346002400260025002040F66A17B94238
:102E100000D100BF1846C1F3421401F01F0601277C
:102E200007FA06F5012C01D10C3004E0022C01D187
:102E3000103000E014301AB107682F43076002E039
:102E40000768AF430760F0BD2DE9F04786B005463F
:102E50000E460024A24600BFA1460027B08900B15B
:102E600000BF2F462C8A4CF6FF700440F0880443C4
:102E70002C82AC894EF6F3100440B08831890843A7
:102E8000718908430443AC81AC8A4FF6FF4004408B
:102E9000B0890443AC8201A8FFF704FB1F488742B6
:102EA00002D1DDF810A001E0DDF80CA0A88900F443
:102EB000004040B10AEBCA0000EB0A10316849003B
:102EC000B0FBF1F807E00AEBCA0000EB0A1031682A
:102ED0008900B0FBF1F86420B8FBF0F00401200990
:102EE000642101FB1089A88900F4004040B1322020
:102EF00000EBC900B0FBF1F000F00700044308E06C
:102F0000322000EB09106421B0FBF1F000F00F005B
:102F100004432C8106B0BDE8F08700000038014072
:102F200001468888C0F308007047C1F30802828018
:102F300070474FF41651016000218180C1800181EA
:102F40000C21418100218181704700BFFEE7000014
:102F500031B50024012269460248FEF76EFAC4B278
:102F6000204638BD2032002031B5002401226946B8
:102F70000248FEF73EFAC4B2204638BD4C3100206C
:102F80000FB4054B10B503A9044A029800F026FCC3
:102F900010BC5DF814FB0000E93C000810010020A3
:102FA000490050EAC12018BF04204A0D18BF40F064
:102FB000010040F2FF72B2EB515F08BF40F0020027
:102FC000012808BF052070474100080218BF0420EF
:102FD0000A0E18BF40F001004FF07F4232EA0101B3
:102FE00008BF40F00200012808BF0520704700001C
:102FF0002DE9F74F144694B00021C4E90211159948
:10300000079121F00045C9498D4206DC1599C4E9B4
:10301000000117B00020BDE8F08FC549DFF814A308
:10302000A9423CDD0799C44E0029C44FC44A1599F2
:10303000534619DDFDF725FA554506D0C14AC24B66
:10304000FDF71FFAC4E900010AE04FF0D352BE4B6E
:10305000FDF717FA32463B46FDF713FAC4E90001C3
:1030600017B00120BDE8F08FFDF76AF9554506D08D
:10307000B44AB54BFDF764F9C4E900010AE04FF02A
:10308000D352B14BFDF75CF932463B46FDF758F998
:10309000C4E9000117B04FF0FF30BDE8F08FAB4935
:1030A000A942159978DB21F0004183468846A84A59
:1030B000A84BFDF7ECF90022A74BFDF741F9FDF70E
:1030C000DCFC0990FDF7BBFC06460F469C4A5346C4
:1030D000FDF7DDF943465A46FDF7D6F980468A46A4
:1030E000984A994B30463946FDF7D1F92A0D01250A
:1030F0000B9242465346FDF7C7F9032DC4E9000180
:1031000039D00B98C1F30A51401A05EB451111391A
:10311000814230DA9148C346784400EB0510CDF87F
:103120000CA00C90D0E9002330463946FDF7AFF9EA
:1031300002460B460491069058460399FDF7A1F903
:1031400080468A4602460B4658460399FDF799F990
:10315000049B069AFDF795F983460C98039139462E
:10316000D0E902233046FDF792F95A46039BFDF75A
:1031700088F96D1CBDE707980028A2BF099817B011
:10318000BDE8F08F616881F000416160099817B077
:103190004042BDE8F08FFFE784461598C1F3130164
:1031A000C0F30A50A0F2F5304FEA601800F01F0695
:1031B000C6F12000139000200690079041F4801E75
:1031C00005206D4676B1664A08EB00017A4452F854
:1031D000213002EB8101B3404A68139922FA01F1D0
:1031E000194305E05F4908EB0002794451F82210C9
:1031F000A1FB0E27A1FB0C131A449A4234BF0123F2
:10320000002303EB070A05EB8003D3E901B70F4462
:103210008F4234BF0121002193448B4411B1934567
:1032200002D903E0934501D2012100E00021C3E966
:1032300001B7514445F82010011EA0F10100C1DC86
:103240000298059F00F10050800F12900298DDE96E
:1032500003568000FDF7F3FB834628460D91FDF7EA
:10326000FFFB6FF01D02FDF7D3FBCDE90E013046E9
:10327000FDF7F6FB6FF03D02FDF7CAFB80468A467C
:103280003846FDF7EDFB6FF05D02FDF7C1FB074629
:10329000424653461191FDF753F8DDE90E23FDF741
:1032A0004FF85A460D9BFDF74BF800250E465A463F
:1032B00028460D9BFDF7E5F8DDE90E23FDF7E1F863
:1032C00042465346FDF7DDF83A46119BFDF7DCF820
:1032D000DFF898A0244A5346FDF7D9F807468846F8
:1032E000234A244B31462846FDF7D1F83A46434657
:1032F000FDF726F8074688464FF0A8425346314668
:103300002846FDF7C4F83A464346FDF719F8159AE2
:1033100012F0004F04D0129A81F0004152421292F2
:10332000C4E90001129817B0BDE8F08FFB21E93F16
:103330007CD90240FB21F93F7370032E8A19A33B0D
:10334000000040543163621A61B4D03DFB21394121
:1033500083C8C96D305FE43F0000E03F3C100000CF
:10336000B80F00009A0F0000182D4454FB21F93DBE
:103370003326A611460B113C2DE9FF4D21F00048E4
:1033800007460C46B8F1795F08DAFDF776FB0028AE
:1033900001BF0020324904B0BDE8F08D3A46234613
:1033A00010461946FDF773F8054602462D480E46AD
:1033B0000B460621784400F05DF82A463346FDF7B7
:1033C00066F8DDE9022382468B4638462146FDF742
:1033D0005EF804460F4652465B4628463146FDF7E6
:1033E00056F822463B46FDF74CF807468A464FF012
:1033F000FF3228463146FDF70BFB1B4A90450ADA9F
:103400003A465346FDF73DF804B00022BDE8F04DC2
:10341000134BFDF739B8154A4245A8BFA8F500156A
:103420004FF00004B8BF124D22462B46FDF729F895
:103430000646884622462B4600200949FDF721F81A
:1034400004460D463A46534630464146FDF719F8C4
:1034500004B022462B46BDE8F04DFDF715B800003C
:103460000000F03F700D00003333D33F0000E93F10
:103470000000D23F2DE9F0414F1E00EBC70104468A
:10348000D1E9000115461E4637F006020DD02A4646
:103490003346FCF7FCFF7F1E04EBC703D3E9002390
:1034A000FCF74EFF37F00602F1D1022F25D0042F92
:1034B00013D0062F18BFBDE8F0812A463346FCF72B
:1034C000E6FFD4E90A23FCF73BFF2A463346FCF724
:1034D000DEFFD4E90823FCF733FF2A463346FCF726
:1034E000D6FFD4E90623FCF72BFF2A463346FCF728
:1034F000CEFFD4E90423FCF723FF2A463346FCF72A
:10350000C6FFD4E90223FCF71BFF2A463346FCF72B
:10351000BEFFD4E90023BDE8F041FCF711BF000075
:103520002DE9FF4D054621F0004084B00C46B0F176
:10353000795F0BDA2846FFF733FD042808BF00F057
:103540006FF8284608B02146BDE8F08D2A460B46A4
:103550001046FCF79CFF06460F462A462346FCF71A
:1035600096FF804626488A4632463B4605217844E7
:10357000FFF780FF83461098029160B3214A224BE7
:1035800040465146FCF783FFCDE900015A464046CC
:103590005146029BFCF77BFF82468846DDE9060127
:1035A0004FF0FF32FDF734FA52464346FCF769FF0D
:1035B00032463B46FCF76BFFDDE90623FCF761FF73
:1035C000DDE90023FCF75DFF08B02A462346BDE88D
:1035D000F04DFCF759BF0B465A4630463946FCF7CA
:1035E00056FF084A084BFCF7ABFE42465346FCF731
:1035F0004EFF08B02A462346BDE8F04DFCF7A0BEBA
:10360000CE0C0000495555555555C5BF0122FDF753
:10361000FFB90022134610461146FCF7AABF00006E
:10362000024A00201107FDF7F3B9000001FDFFFF7A
:103630000121FDF7E1B900210846FCF743BE6FF018
:103640005E010807FDF7D8B92DE9F04D0D46144687
:103650004FF07F41B1EB440F9EBF4FF0FF31296027
:10366000BDE8F08D4FF0004040EA0421C4F3C7509C
:10367000783810F01F024A4B4FEA601CC2F1200656
:103680007B44C4F3C750A0F178004FEA601003EB0D
:10369000800053F82C3008BFD0E901C612D0D0F812
:1036A00004C093402CFA06F73B4387680CFA02FCEF
:1036B00027FA06F8C06807FA02F2F0404CEA080C54
:1036C00042EA0006A3FB0132ACFB01C0A6FB01618C
:1036D00001EB0C068E4234BF4FF0010C4FF0000C92
:1036E000C1186144BCF1000F02D0814202D903E04D
:1036F000814201D2012000E00020104400F12002AC
:103700004FEA92188006CA0C40EA42304F03C5F8CF
:103710000080FCF79DFF82463846FCF7A2FF6FF061
:103720001201FDF769F907463046FCF79AFF6FF082
:103730002501FDF761F9834639465046FCF738FD0F
:103740005946FCF735FD00F500666FF30B06514650
:103750003046FCF77FFD3946FCF77CFD5946FCF707
:103760007CFD1049FCF77CFD07460F493046FCF70D
:1037700077FD3946FCF71CFD07460C493046FCF73F
:103780006FFD3946FCF714FD14F0004F08BFBDE88B
:10379000F08DC8F1805180F000402960BDE8F08DC7
:1037A0009C0B0000DB0FC92F22AAFD290000C92FA6
:1037B00002E008C8121F08C1002AFAD170477047FA
:1037C000002001E001C1121F002AFBD17047000058
:1037D0000149086070470000140100202DE9FF4FE7
:1037E0008DB09B460F460446002606E025280BD0E8
:1037F0005A460F999047641C761C20780028F5D112
:1038000011B03046BDE8F08F0025A8460122984946
:1038100000E0054314F8013F203B02FA03F00842A0
:10382000F7D120782E2817D114F8010F45F00405A0
:103830002A280ED06FF02F022078A0F1300109293C
:103840000AD808EB880102EB410100EB0108641C77
:10385000F2E757F8048B641C20786C280DD004DC48
:103860004C2812D06A2811D104E074280DD07A288F
:103870000CD10AE045F4001507E0617845F48015A5
:10388000814202D1641C05F58015641C2278692AE6
:1038900045D008DC002AB3D0582A69D0632A10D05A
:1038A000642A08D13BE0702A67D0732A13D0752AA6
:1038B0005CD0782A5CD010465A460F999047761C07
:1038C000D3E017F8040B8DF8000000208DF80100FC
:1038D000E946012003E057F8049B4FF0FF306907E9
:1038E0004FF0000501D40AE06D1C45450DDA854214
:1038F000FADB19F805100029F6D106E06D1C8542A7
:10390000FCDB19F805100029F8D12E4404E019F861
:10391000010B5A460F9990476D1EF8D2A5E00A2078
:103920000021CDE90801C5F3025002280DD001CFD6
:10393000C117031E71F100030DDA4FF0000CD0EB3C
:103940000C006CEB01012D2308E0FF1D27F0070799
:10395000F7E80201EDE72B0504D52B238DF828307D
:1039600001233BE0EB0739D02023F7E70A2000E0F2
:1039700010200021CDE9080107E01020002145F0CA
:103980000405CDE908014FF00808C5F302500228EC
:103990000FD001CF00214FF0000A2B071FD5702A4E
:1039A0000DD0DDE908C38CF0100C5CEA030C0CD0E0
:1039B00015E0FF1D27F00707F7E80201EBE74022BB
:1039C0008DF828204FF0010A0BE050EA010306D0E1
:1039D00030238DF828308DF8292002239A46582A62
:1039E00004D024A20DF120090B9209E026A2F9E7E8
:1039F000DDE90823FCF792FE0B9B9B5C09F8013D77
:103A000050EA0102F4D1ADEB0900203008906807BC
:103A100001D44FF001080899884502DDA8EB0100A8
:103A200000E000208046002506E00AA85A46405DD6
:103A30000F9990476D1C761C5545F6DB04E030204D
:103A40005A460F999047761CB8F10001A8F1010879
:103A5000F5DC05E019F8010B5A460F999047761CE2
:103A60000899481E08900029F4DC641CC5E6000093
:103A70000928010030313233343536373839616244
:103A80006364656600000000303132333435363708
:103A900038394142434445460000000070B58AB0C1
:103AA000242101A8FCF779FB2048007830B1204898
:103AB0000078092802DD00201C4908701C480078A5
:103AC000022805DA1948007810B100200AB070BD4C
:103AD00000240BE01749601C51F8200051F8241015
:103AE000401A01A941F82400601CC4B210480078B3
:103AF000401EA04201DD092CECDB0C48007838B1F7
:103B00000B480078092803DA09480078401E00E0D5
:103B10000920014601A800F069F905464EF660202B
:103B2000B0FBF5F006B23046D0E700008000002080
:103B30004C000020580100202DE9F0438BB02C22CE
:103B400019496846FCF710FB18480088184909888D
:103B5000471A1848008818490988A0EB0108002F67
:103B600009DD4FF47A7008FB00F090FBF7F9484646
:103B7000FCF76EFD0646012400E0641C5DF824009D
:103B8000FCF76FFD81463146FCF7B4FD01D80B2CE4
:103B9000F3DBC4F1650005B2642D00D1632528462E
:103BA0000BB0BDE8F0830000FC400008C40000201A
:103BB000C6000020C8000020CA00002000B5244B29
:103BC00021F0004287B09A42DCBF0022134629DD73
:103BD000204B9A4208D140B94FF00100FFF7F8FDA1
:103BE000FFF717FD07B000BD03DBFFF70FFD07B0C0
:103BF00000BD02AAFFF7FCF910F0030104BF0DF1AC
:103C0000080C9CE80F000DD0012001290ED00229DC
:103C100014D00DF1080C00909CE80F00FFF780FC19
:103C200007B000BDFFF7A8FB07B000BD0DF1080C01
:103C300000909CE80F00FFF773FC05E00DF1080C05
:103C40009CE80F00FFF798FB07B081F0004100BD32
:103C5000FB21E93F0000F07F70B505461C48016874
:103C60002846FCF751FD09D21A4801682846FCF79E
:103C70004BFD03D201201849087025E01648007852
:103C800010B3134801682846FCF734FD1CD2FDF739
:103C900075FE044611480068201AB0F5967F10D3CF
:103CA0000F4800780A2190FBF1F201FB12000D4948
:103CB00041F820400A480078401C0949087007482C
:103CC00004600020044908700148056070BD0000D0
:103CD0006400002068000020600000207C000020BC
:103CE0004C0000205801002070B504460D46E0B29B
:103CF000FEF71CFE204670BDFDF76DFFFDF710FFBF
:103D0000FEF74AFD0BA0FFF73BF90EA0FFF738F9CD
:103D100011A0FFF735F915A0FFF732F918A0FFF74A
:103D20002FF91AA0FFF72CF903E0FEF723FAFEF7AC
:103D3000FBF9FAE75B5B312CC2F6C2CA5D5D0D0A86
:103D4000000000005B5B322CD1AAD1F5B1A5BACD41
:103D5000B6C85D5D0D0A00005B5B332CB5F7B9E2B8
:103D6000D7B4CCAC5D5D0D0A000000005B5B342C69
:103D7000CAD6D6B8C1ACBDD35D5D0D0A0000000047
:103D80005B5B352C44415D5D0D0A00005B5B342CB0
:103D9000CDD1C2E45D5D0D0A0000000070B504469F
:103DA0000D46012D0ED10F480088FCF75AFC06463F
:103DB0002146FCF79FFC13D22046FCF757FC09492B
:103DC00008800DE008480088FCF74BFC06462146B9
:103DD000FCF790FC04D22046FCF748FC024908801E
:103DE00070BD0000C4000020C800002070B502466D
:103DF0000C46002116E0481CC3B20FE052F8210027
:103E000052F82360B04207D952F8215052F82300EB
:103E100042F8210042F82350581CC3B2A342EDD30C
:103E2000481CC1B2A142E6D3600852F8200070BD20
:103E300070B504460D46012D0ED10F480088FCF7E1
:103E400010FC06462146FCF75FFC13D22046FCF727
:103E50000DFC094908800DE008480088FCF701FCCA
:103E600006462146FCF750FC04D22046FCF7FEFB38
:103E70000249088070BD0000C6000020CA00002072
:103E800000B5254B21F0004287B09A4203DC0022A6
:103E9000134600922BE0214B9A4208D140B94FF0D3
:103EA0000100FFF795FCFFF7B4FB07B000BD03DB93
:103EB000FFF7ACFB07B000BD02AAFFF799F810F0BE
:103EC00003014FF001000DD0012914D002291AD0AE
:103ED0000DF1080C9CE80F00FFF74EFA07B081F0D7
:103EE000004100BD0DF1080C00909CE80F00FFF7A9
:103EF00017FB07B000BD0DF1080C9CE80F00FFF7A1
:103F00003BFA07B000BD0DF1080C00909CE80F00D3
:103F1000FFF706FBE2E70000FB21E93F0000F07F2E
:103F200070B50546FCF783FC044620F00040C0F164
:103F3000FF40C00F08D025F00040C0F1FF40C00F87
:103F400004BF0120FFF744FC204670BD2DE9F84373
:103F5000044602464C486946B0EB420F09D94FF07F
:103F6000E640B0EB420F94BF00204FF0FF300090CE
:103F700030E0464B22F00040834265D94449204658
:103F8000FCF76EF9FCF782FC8046FCF7FAFC00F0C7
:103F9000030000903F494046FCF762F905463E4960
:103FA0004046FCF75DF906463C494046FCF758F9A7
:103FB00007463B494046FCF753F92146FCF74DF9CB
:103FC0003946FCF747F93146FCF744F92946FCF736
:103FD00041F90446009D002D3ADB21460846FCF7D6
:103FE0003FF906462F49FCF73BF92F49FCF7E0F86B
:103FF0003146FCF735F92D49FCF7DAF83146FCF784
:104000002FF92B49FCF7D4F83146FCF729F9294957
:10401000FCF7CEF83146FCF723F92749FCF7C8F83E
:104020003146FCF71DF92146FCF71AF92146FCF749
:10403000BFF815F0010F08BFBDE8F8830146BDE8E1
:10404000F8431E48FCF73EB91046FFF7FDFAC0E7FB
:104050006000B0F17F4F09D22046FEF7B5FF04287B
:1040600008BFFFF7ECFA2046BDE8F88306D101202F
:10407000FFF7AEFBBDE8F843FFF7DDBA2046BDE829
:10408000F843FFF7D5BA0000B61F927E490E4946A5
:1040900083F9223F1A61342C0020A23300A0FD399D
:1040A0000000C93FBBE9223C0C6D063B8A76CE3C42
:1040B000ACB5593D35A1083E29AAAA3E000080BFF3
:1040C0000000803F000000400000803F863886BF2F
:1040D0006B9A973E0000803F000000400000803F48
:1040E0004013A9BFA1F8213FF085C93C8E06703E60
:1040F000D0D5F63E8E06703EF085C93C44020000E5
:104100006C0200008A0200009E020000BC02000057
:10411000DA020000F80200000C0300002A0300008D
:1041200048030000700300004C5555555555A53FF8
:104130007751C1166CC156BF9015CB19A001FA3E3C
:10414000AD529C804F7E92BEC4B1B4BD9EEE213E66
:10415000D43888BEE9FAA8BD00004054FB21F93FDD
:104160003163621A61B4D03D0000601A61B4D03D81
:104170007370032E8A19A33B0000002E8A19A33BFB
:10418000C14920259A837B3900000000000000000F
:104190006E83F9A22915444ED15727FCC0DD34F5B2
:1041A000999562DB4190433CAB6351FE61C5BBDE38
:1041B0003A6E24B7E0D24D42EA2E49061C92D1094C
:1041C0001CEB1DFE3EA729B1F53582E88444BB2EC9
:1041D00026709CE9417E5FB439D69139F439538316
:1041E0008B5F849C3B28F9BDFF97F81F0F9805DE75
:1041F0008B112FEF1F6D0A5ACF7E366DB709CB2773
:10420000663F464F2DEA5F9EC7BA27757BF1E5EB07
:10421000F739073DEA92528AB15FFB6B085D8D1F4B
:10422000000000006E83F9A22915444ED15727FCE7
:10423000C0DD34F5999562DB4190433CAB6351FEA0
:10424000A6F810111111813FD561C119A0012ABF33
:104250007DFEB157E31DC73EEB9C2B8AE6E55ABEB7
:104260007CD5CF5A3AD9E53D8842000800000020AD
:1042700018010000B0370008A04300081801002012
:10428000E0350000C037000800000000000000001A
:1042900000000000000064000000000000000000BA
:1042A0000000000000000000000000000000803F4F
:1042B00052B8FEBF0000803F0000803FFC87F4BF83
:1042C000FAED6B3F0000000000000000000000005D
:1042D00000000000000000000000000000000000DE
:1042E00000000000000000000000000000000000CE
:1042F0000080634400000000000000000000000097
:1043000000000000000000000100000000000000AC
:1043100064006400000000000000000000000000D5
:10432000000000000000000000000000000000008D
:10433000000000000000000000000000000000007D
:104340000000000000000000000000000000FF0F5F
:104350000000FF0F0000000000000000000000004F
:10436000000000000000000000000000000000004D
:1043700001020304010203040607080902040608F7
:104380000000000000A24A0400000000000000003D
:1043900001020304060708090000000000000000F5
:0400000508000131BD
:00000001FF
